:100000000C942A000C943C000C943C000C943C0092
:100010000C943C000C943C000C943C000C943C0070
:100020000C943C000C943C000C943C000C943C0060
:100030000C943C000C943C000C943C000C943C0050
:100040000C943C000C943C000C943C000C943C0040
:100050000C943C0011241FBECFE5D8E0DEBFCDBF1D
:1000600020E0A0E6B0E001C01D92A136B207E1F7A2
:100070000E9418020C9423040C940000CF93DF9389
:1000800060E081E40E94F501C82FD0E061E081E4E6
:100090000E94F501C80FD11D62E081E40E94F501C4
:1000A000C80FD11D60E082E40E94F501C80FD11D88
:1000B00061E082E40E94F501C80FD11D62E082E494
:1000C0000E94F501C80FD11D62E084E40E94E401A2
:1000D000C80FD11DCD2B11F00E943E000E940A04D2
:1000E000DF91CF910895A12CB12C00E010E00DC05C
:1000F00058010BC0870109C000E010E006C002E013
:1001000010E003C0580101E010E00130110509F4CE
:100110004DC024F40115110551F0F7CF023011053F
:1001200009F4ADC00330110509F422C1EECF1092DD
:100130006000E12CF12CC0E0D0E02DC060E081E453
:100140000E94FE01C80FD11D61E081E40E940702F8
:10015000C80FD11D62E081E40E940702C80FD11DC3
:1001600060E082E40E940702C80FD11D61E082E4D2
:100170000E940702C80FD11D62E082E40E94FE01C6
:100180000E940D0480E897E00E9411040E9421045F
:100190008FEFE81AF80A8AE0E816F1047CF2CD2B1A
:1001A00009F0A6CF580101E010E0AFCF1092600037
:1001B0007801C0E0D0E0C12CD12C4DC060E081E4DA
:1001C0000E94070261E081E40E94100262E081E483
:1001D0000E94070260E082E40E94070261E082E47C
:1001E0000E94070262E082E40E94070240E650E0BB
:1001F00062E084E40E94ED0180916000813041F46E
:100200008FEFC81AD80A0F2EF3E0EF2EF12CF02D45
:100210000E940D0480E897E00E9411040E942104CE
:1002200040E650E062E084E40E94ED0180916000CD
:1002300081110AC083E0E816F10441F483E0C81696
:10024000D10434F0780106C0780104C0780102C0FE
:10025000CAE0D0E02196CA30D1050CF4AFCF83E0DC
:10026000E816F10409F446CF82E0A816B10409F4B7
:1002700043CFA114B10409F442CF870146CF1092B5
:100280006000E12CF12CC0E0D0E0C12CD12C61C089
:1002900060E081E40E940702C80FD11D61E081E4A3
:1002A0000E940702C80FD11D62E081E40E94FE0196
:1002B000C80FD11D60E082E40E94FE01C80FD11D6D
:1002C00061E082E40E940702C80FD11D62E082E46F
:1002D0000E940702C80FD11D40E650E062E084E4AE
:1002E0000E94ED01C80FD11D80916000813029F47A
:1002F0008FEFC81AD80A03E010E00E940D0480E8CE
:1003000097E00E9411040E94210440E650E062E060
:1003100084E40E94ED01C80FD11D8091600081111D
:100320000AC00330110551F483E0C816D1044CF023
:1003300001E010E00BC001E010E008C001E010E0B7
:1003400005C00F2EFAE0EF2EF12CF02D8FEFE81AFA
:10035000F80A8AE0E816F1040CF49ACF033011058C
:1003600009F4D3CECD2B09F4CDCE00E010E0CDCEF4
:1003700010926000C0E0D0E021C060E081E40E9403
:10038000070261E081E40E94100262E081E40E94C1
:10039000070260E082E40E94070261E082E40E94BA
:1003A000100262E082E40E9407020E940D0480E8CD
:1003B00097E00E9411040E9421042196CA30D105C1
:1003C000E4F200E010E0A1CE982F862F40E0692FE4
:1003D0000E941F02811181E00895982F862F692FB6
:1003E0000E949C03811182E00895982F862F41E09E
:1003F000692F0E941F02811181E00895982F862F96
:1004000041E0692F0E94BB02811182E00895982F7C
:10041000862F40E0692F0E94BB02811183E008957E
:10042000982F862F692F0E945703811184E0089529
:100430000E943E000E94730080E090E008956234C4
:1004400069F118F4613441F08DC0633409F448C097
:10045000643409F466C086C041110FC04AB321E07C
:1004600030E0B90102C0660F771F8A95E2F7CB0131
:10047000809584238ABB80E00895413009F073C0E1
:100480004AB321E030E0B90102C0660F771F8A95B8
:10049000E2F7CB01842B8ABB80E0089541110FC0A5
:1004A00047B321E030E0B90102C0660F771F8A959B
:1004B000E2F7CB018095842387BB80E0089541302B
:1004C00009F053C047B321E030E0B90102C0660F24
:1004D000771F8A95E2F7CB01842B87BB80E00895D4
:1004E00041110FC044B321E030E0B90102C0660FF2
:1004F000771F8A95E2F7CB018095842384BB80E047
:1005000008954130A1F544B321E030E0B90102C0C3
:10051000660F771F8A95E2F7CB01842B84BB80E0BE
:10052000089541110FC041B321E030E0B90102C08C
:10053000660F771F8A95E2F7CB018095842381BBF4
:1005400080E008954130A9F441B321E030E0B901E1
:1005500002C0660F771F8A95E2F7CB01842B81BB1F
:1005600080E00895089582E0089582E0089582E091
:10057000089582E00895623469F118F4613441F01D
:100580008DC0633409F448C0643409F466C086C081
:1005900041110FC04BB321E030E0B90102C0660F3A
:1005A000771F8A95E2F7CB01809584238BBB80E08F
:1005B0000895413009F073C04BB321E030E0B90138
:1005C00002C0660F771F8A95E2F7CB01842B8BBBA5
:1005D00080E0089541110FC048B321E030E0B90137
:1005E00002C0660F771F8A95E2F7CB0180958423BE
:1005F00088BB80E00895413009F053C048B321E042
:1006000030E0B90102C0660F771F8A95E2F7CB018F
:10061000842B88BB80E0089541110FC045B321E0D1
:1006200030E0B90102C0660F771F8A95E2F7CB016F
:100630008095842385BB80E008954130A1F545B3C2
:1006400021E030E0B90102C0660F771F8A95E2F71A
:10065000CB01842B85BB80E0089541110FC042B3CC
:1006600021E030E0B90102C0660F771F8A95E2F7FA
:10067000CB018095842382BB80E008954130A9F4AA
:1006800042B321E030E0B90102C0660F771F8A95BE
:10069000E2F7CB01842B82BB80E00895089581E0CE
:1006A000089581E0089581E0089581E0089562341D
:1006B000B9F018F4613431F03DC06334F9F06434BA
:1006C00059F138C04BB321E030E0B90102C0660FE8
:1006D000771F8A95E2F7CB0184278BBB80E00895D2
:1006E00048B321E030E0B90102C0660F771F8A9558
:1006F000E2F7CB01842788BB80E0089545B321E071
:1007000030E0B90102C0660F771F8A95E2F7CB018E
:10071000842785BB80E0089542B321E030E0B90131
:1007200002C0660F771F8A95E2F7CB01842782BB50
:1007300080E0089583E00895623411F118F4613483
:1007400039F066C06334A1F1643409F449C060C073
:1007500099B321E030E0B901082E02C0660F771F7F
:100760000A94E2F7292F30E026233723B90102C08B
:10077000759567958A95E2F7FA01608380E00895A0
:1007800096B321E030E0B901082E02C0660F771F52
:100790000A94E2F7292F30E026233723B90102C05B
:1007A000759567958A95E2F7FA01608380E0089570
:1007B00093B321E030E0B901082E02C0660F771F25
:1007C0000A94E2F7292F30E026233723B90102C02B
:1007D000759567958A95E2F7FA01608380E0089540
:1007E00090B321E030E0B901082E02C0660F771FF8
:1007F0000A94E2F7292F30E026233723B90102C0FB
:10080000759567958A95E2F7FA01608380E008950F
:1008100084E0089513BE12BE089583B7816083BF3C
:100820000895AC0120E030E008C008B600FEFDCF1E
:1008300098B7916098BF2F5F3F4F24173507A8F3F3
:0A084000089513BE0895F894FFCF49
:00000001FF
